:100000000C942A000C943F000C943F000C943F0089
:100010000C943F000C943F000C943F000C943F0064
:100020000C943F000C943F000C943F000C943F0054
:100030000C943F000C943F000C943F000C943F0044
:100040000C943F000C943F000C943F000C943F0034
:100050000C943F0011241FBECFE5D8E0DEBFCDBF1A
:1000600010E0A0E6B0E0E6E4F4E302C005900D92F3
:10007000A43CB107D9F70E9420120C94211A0C94C9
:100080000000EF92FF920F931F937B018C0120E001
:1000900030E040E05FE40E94410388238CF0C80117
:1000A000B70120E030E040E05FE40E94B9010E9427
:1000B000A1039B01AC01205030404040504806C095
:1000C000C801B7010E94A1039B01AC01B901CA019B
:1000D0001F910F91FF90EF900895A0E0B0E0E3E74B
:1000E000F0E00C94EA19DC012B01FA019C919230AA
:1000F00008F439C1EB018881823008F433C19430AF
:1001000069F4843009F02FC111969C91119789816F
:10011000981709F428C1ABEAB0E025C1843009F48E
:1001200021C18230A9F4923009F01DC19A01AD01BC
:1001300088E0EA010990AE01E90109929E0181502F
:10014000C1F7E201898111969C918923818308C1BD
:10015000923009F407C112962D903C901397EB0151
:100160008A819B811496AD90BD90CD90DC901797BD
:10017000EC80FD800E811F819101281B390BB90194
:1001800037FF04C066277727621B730B6032710547
:100190000CF061C0121613066CF537014801062EEB
:1001A00004C096948794779467940A94D2F721E0D8
:1001B00030E040E050E004C0220F331F441F551FC1
:1001C0006A95D2F721503040404050402E213F21C7
:1001D00040235123211531054105510521F021E02E
:1001E00030E040E050E079018A01E628F72808294C
:1001F00019293CC0232BD1F1260E371E35014601AB
:10020000062E04C096948794779467940A94D2F744
:1002100021E030E040E050E004C0220F331F441FD3
:10022000551F6A95D2F721503040404050402A2156
:100230003B214C215D21211531054105510521F05E
:1002400021E030E040E050E059016A01A628B728DB
:10025000C828D9280BC0821593052CF01C01AA24AC
:10026000BB24650103C0EE24FF24870111969C91F5
:10027000D20111968C91981709F445C0992339F051
:10028000A80197012A193B094C095D0906C0A6017E
:1002900095012E193F09400B510B57FD08C01182E3
:1002A0003382228224833583468357831DC081E0B5
:1002B00081833382228288279927DC01821B930B5A
:1002C000A40BB50B84839583A683B7830DC0220F3F
:1002D000331F441F551F24833583468357838281F0
:1002E000938101979383828324813581468157814D
:1002F000DA01C9010197A109B1098F5F9F4FAF4F83
:10030000BF4328F30BC0918333822282EA0CFB1C8B
:100310000C1D1D1DE482F5820683178383E0808314
:10032000248135814681578157FF1AC0C901AA2708
:1003300097FDA095BA2F81709070A070B0705695FF
:10034000479537952795822B932BA42BB52B848328
:100350009583A683B7838281938101969383828359
:10036000DF0101C0D201CD01CDB7DEB7E2E10C94CF
:10037000061AA0E2B0E0EFEBF1E00C94F619698305
:100380007A838B839C832D833E834F835887E9E058
:10039000EE2EF12CEC0EFD1ECE010196B7010E944F
:1003A000CA048E010F5E1F4FCE010596B8010E9450
:1003B000CA048A8991E089278A8BC701B801AE01F6
:1003C000475E5F4F0E946D000E94F503A096E6E035
:1003D0000C94121AA0E2B0E0E0EFF1E00C94F619F0
:1003E00069837A838B839C832D833E834F835887D5
:1003F000F9E0EF2EF12CEC0EFD1ECE010196B701B7
:100400000E94CA048E010F5E1F4FCE010596B801EF
:100410000E94CA04C701B801AE01475E5F4F0E9447
:100420006D000E94F503A096E6E00C94121AA0E27B
:10043000B0E0EDE1F2E00C94EA1969837A838B83F2
:100440009C832D833E834F835887CE010196BE0146
:10045000675F7F4F0E94CA04CE010596BE016F5EA2
:100460007F4F0E94CA049985923088F08989823032
:10047000C8F0943019F4823051F404C0843029F467
:10048000923081F48BEA90E0C6C0923049F420E0CB
:100490009A858A89981321E02A87CE010996BBC0E4
:1004A000823049F420E09A858A89981321E02A8BCA
:1004B000CE014196B0C02D843E844F8458886D880B
:1004C0007E888F88988CEE24FF248701AA24BB2481
:1004D000650140E050E060E070E0E0E0F0E0C10184
:1004E00081709070892BE9F0E60CF71C081D191D2E
:1004F0009A01AB012A0D3B1D4C1D5D1D80E090E073
:10050000A0E0B0E0E614F7040805190520F481E046
:1005100090E0A0E0B0E0BA01A901480F591F6A1F9E
:100520007B1FAA0CBB1CCC1CDD1C97FE08C081E005
:1005300090E0A0E0B0E0A82AB92ACA2ADB2A3196C6
:10054000E032F10549F0660C771C881C991C569422
:10055000479437942794C3CFFA85EA892B893C893D
:100560008B859C85280F391F2E5F3F4F17C0CA010E
:1005700081709070892B61F016950795F794E79438
:1005800080E090E0A0E0B0E8E82AF92A0A2B1B2BD3
:1005900076956795579547952F5F3F4F77FDE7CF46
:1005A0000CC0440F551F661F771F17FD4160EE0CEE
:1005B000FF1C001F111F21503040403090E05907B0
:1005C00090E0690790E4790760F32B8F3C8FDB01A3
:1005D000CA018F779070A070B07080349105A1052A
:1005E000B10561F447FD0AC0E114F10401051105EC
:1005F00029F0405C5F4F6F4F7F4F40781A8EFE1797
:1006000011F081E08A8F4D8F5E8F6F8F78A383E02A
:10061000898FCE0149960E94F503A096E2E10C94E1
:10062000061AA8E1B0E0E7E1F3E00C94F61969835B
:100630007A838B839C832D833E834F83588789E005
:10064000E82EF12CEC0EFD1ECE010196B7010E94A2
:10065000CA048E010F5E1F4FCE010596B8010E949D
:10066000CA048985823040F08989823028F0C70128
:10067000B8010E94420501C08FEF6896E6E00C9435
:10068000121AA8E1B0E0E7E4F3E00C94F6196983EC
:100690007A838B839C832D833E834F83588789E0A5
:1006A000E82EF12CEC0EFD1ECE010196B7010E9442
:1006B000CA048E010F5E1F4FCE010596B8010E943D
:1006C000CA048985823040F08989823028F0C701C8
:1006D000B8010E94420501C08FEF6896E6E00C94D5
:1006E000121AA8E1B0E0E7E7F3E00C94F619698389
:1006F0007A838B839C832D833E834F83588789E045
:10070000E82EF12CEC0EFD1ECE010196B7010E94E1
:10071000CA048E010F5E1F4FCE010596B8010E94DC
:10072000CA048985823040F08989823028F0C70167
:10073000B8010E94420501C081E06896E6E00C9491
:10074000121AACE0B0E0E7EAF3E00C94FA1969831E
:100750007A838B839C83CE010196BE016B5F7F4FB2
:100760000E94CA048D81823061F1823050F1843060
:1007700021F48E81882351F12EC02F81388537FDD9
:1007800020C06E812F3131051CF06623F9F023C0A3
:100790008EE190E0821B930B29853A854B855C8521
:1007A00004C056954795379527958A95D2F76623C5
:1007B000B1F050954095309521953F4F4F4F5F4F89
:1007C0000EC020E030E040E050E009C02FEF3FEFE6
:1007D0004FEF5FE704C020E030E040E050E8B901AF
:1007E000CA012C96E2E00C94161ADF92EF92FF9267
:1007F0000F931F93FC01E480F58006811781D1805F
:100800008081823048F480E090E0A0E1B0E0E82A06
:10081000F92A0A2B1B2BA5C0843009F49FC0823013
:1008200021F4EE24FF24870105C0E114F104010541
:10083000110519F4E0E0F0E096C0628173819FEF4A
:10084000623879070CF05BC022E83FEF261B370BBC
:100850002A3131052CF020E030E040E050E02AC0A1
:10086000B801A701022E04C0769567955795479564
:100870000A94D2F781E090E0A0E0B0E004C0880FD5
:10088000991FAA1FBB1F2A95D2F70197A109B10989
:100890008E219F21A023B1230097A105B10521F04E
:1008A00081E090E0A0E0B0E09A01AB01282B392B69
:1008B0004A2B5B2BDA01C9018F779070A070B07062
:1008C00080349105A105B10539F427FF09C0205CEA
:1008D0003F4F4F4F5F4F04C0215C3F4F4F4F5F4F23
:1008E000E0E0F0E02030A0E03A07A0E04A07A0E412
:1008F0005A0710F0E1E0F0E079018A0127C0603882
:10090000710564F5FB01E158FF4FD801C7018F77EE
:100910009070A070B07080349105A105B10539F4D4
:10092000E7FE0DC080E490E0A0E0B0E004C08FE3FB
:1009300090E0A0E0B0E0E80EF91E0A1F1B1F17FFB1
:1009400005C016950795F794E794319687E01695BC
:100950000795F794E7948A95D1F705C0EE24FF2414
:100960008701EFEFF0E06E2F679566276795902F70
:100970009F77D794DD24D7948E2F8695492F462BC9
:10098000582F5D29B701CA011F910F91FF90EF9079
:10099000DF900895FC01DB01408151812281622FAB
:1009A0006F7770E0221F2227221F9381892F880FE3
:1009B000822B282F30E0991F9927991F11969C931D
:1009C000119721153105A9F54115510561057105ED
:1009D00011F482E037C082E89FEF13969C938E93C8
:1009E00012979A01AB0167E0220F331F441F551F76
:1009F0006A95D1F783E08C930DC0220F331F441FFB
:100A0000551F12968D919C911397019713969C9365
:100A10008E931297203080E0380780E0480780E40A
:100A2000580758F314962D933D934D935C93179765
:100A300008952F3F310579F4411551056105710580
:100A400019F484E08C93089564FF03C081E08C93D3
:100A500012C01C9210C02F57304013963C932E9317
:100A6000129783E08C9387E0440F551F661F771F12
:100A70008A95D1F7706414964D935D936D937C9332
:100A8000179708951F93DC01FB019C91923008F4A5
:100A900047C08081823008F443C0943051F41196ED
:100AA0001C91843099F58181682F70E0611B710978
:100AB0003FC0843021F0923031F48230B9F181812D
:100AC000882389F12DC011961C9111978230F1F085
:100AD00081811817D9F412962D913C911397828138
:100AE00093818217930794F028173907BCF0149666
:100AF0008D919D910D90BC91A02D248135814681D1
:100B00005781281739074A075B0718F4112341F06A
:100B10000AC082179307A407B50740F4112319F000
:100B200061E070E005C06FEF7FEF02C060E070E051
:100B3000CB011F910895DF93CF9300D000D00F9287
:100B4000CDB7DEB78A836B8319828A81282F30E084
:100B50003D832C838C819D8181309105D1F02C8146
:100B60003D81223031052CF48C819D81009761F00C
:100B70001FC02C813D812230310581F08C819D8107
:100B80008330910581F014C0EAE3F0E08B8180832B
:100B900011C0E7E3F0E08B8180830CC0E4E3F0E078
:100BA0008B81808307C0E1E3F0E08B81808302C00A
:100BB00081E0898389810F900F900F900F900F90A3
:100BC000CF91DF910895DF93CF9300D000D00F92A3
:100BD000CDB7DEB78A836B8319828A81282F30E0F4
:100BE0003D832C838C819D8181309105D1F02C81B6
:100BF0003D81223031052CF48C819D81009761F07C
:100C00001FC02C813D812230310581F08C819D8176
:100C10008330910581F014C0EBE3F0E08B81808399
:100C200011C0E8E3F0E08B8180830CC0E5E3F0E0E5
:100C30008B81808307C0E2E3F0E08B81808302C078
:100C400081E0898389810F900F900F900F900F9012
:100C5000CF91DF910895DF93CF9300D000D000D0E3
:100C6000CDB7DEB78A837C836B8319828A81282F74
:100C700030E03E832D838D819E8181309105E1F0AE
:100C80002D813E81223031052CF48D819E8100978B
:100C900061F027C02D813E8122303105A1F08D8188
:100CA0009E8183309105B1F01CC0E9E3F0E08081C2
:100CB000EB81FC81808317C0E6E3F0E08081EB816B
:100CC000FC81808310C0E3E3F0E08081EB81FC8154
:100CD000808309C0E0E3F0E08081EB81FC818083C8
:100CE00002C081E08983898126960FB6F894DEBF21
:100CF0000FBECDBFCF91DF910895DF93CF93CDB7D6
:100D0000DEB728970FB6F894DEBF0FBECDBF8A833B
:100D10006B834C8319828B81883008F0F4C08C81FE
:100D2000882309F077C08A81282F30E038872F8305
:100D30008F8198858130910559F12F813885223036
:100D400031052CF48F819885009769F060C02F8160
:100D500038852230310589F18F819885833091055E
:100D600009F440C054C0AAE3B0E0EAE3F0E08081B7
:100D7000482F8B81282F30E081E090E0022E02C0C6
:100D8000880F991F0A94E2F7809584238C93BDC045
:100D9000A7E3B0E0E7E3F0E08081482F8B81282FC4
:100DA00030E081E090E0022E02C0880F991F0A9483
:100DB000E2F7809584238C93A8C0A4E3B0E0E4E339
:100DC000F0E08081482F8B81282F30E081E090E097
:100DD000022E02C0880F991F0A94E2F7809584239F
:100DE0008C9393C0A1E3B0E0E1E3F0E08081482F71
:100DF0008B81282F30E081E090E0022E02C0880F26
:100E0000991F0A94E2F7809584238C937EC081E039
:100E100089837BC08C81813009F072C08A81282F40
:100E200030E03E832D838D819E818130910549F193
:100E30002D813E81223031052CF48D819E810097D9
:100E400061F05BC02D813E812230310571F18D81D1
:100E50009E8183309105E9F150C0AAE3B0E0EAE356
:100E6000F0E08081482F8B81282F30E081E090E0F6
:100E7000022E02C0880F991F0A94E2F7842B8C93EC
:100E800044C0A7E3B0E0E7E3F0E08081482F8B8126
:100E9000282F30E081E090E0022E02C0880F991FD9
:100EA0000A94E2F7842B8C9330C0A4E3B0E0E4E32F
:100EB000F0E08081482F8B81282F30E081E090E0A6
:100EC000022E02C0880F991F0A94E2F7842B8C939C
:100ED0001CC0A1E3B0E0E1E3F0E08081482F8B810A
:100EE000282F30E081E090E0022E02C0880F991F89
:100EF0000A94E2F7842B8C9308C081E0898305C0B3
:100F000081E0898302C081E08983898128960FB6B8
:100F1000F894DEBF0FBECDBFCF91DF910895DF9370
:100F2000CF93CDB7DEB728970FB6F894DEBF0FBECC
:100F3000CDBF8A836B834C8319828B81883008F004
:100F4000F4C08C81882309F077C08A81282F30E093
:100F500038872F838F8198858130910559F12F81B2
:100F60003885223031052CF48F819885009769F0FF
:100F700060C02F8138852230310589F18F819885B5
:100F80008330910509F440C054C0ABE3B0E0EBE31B
:100F9000F0E08081482F8B81282F30E081E090E0C5
:100FA000022E02C0880F991F0A94E2F780958423CD
:100FB0008C93BDC0A8E3B0E0E8E3F0E08081482F67
:100FC0008B81282F30E081E090E0022E02C0880F54
:100FD000991F0A94E2F7809584238C93A8C0A5E317
:100FE000B0E0E5E3F0E08081482F8B81282F30E0EE
:100FF00081E090E0022E02C0880F991F0A94E2F768
:10100000809584238C9393C0A2E3B0E0E2E3F0E008
:101010008081482F8B81282F30E081E090E0022EE4
:1010200002C0880F991F0A94E2F7809584238C935D
:101030007EC081E089837BC08C81813009F072C0E1
:101040008A81282F30E03E832D838D819E818130DF
:10105000910549F12D813E81223031052CF48D819D
:101060009E81009761F05BC02D813E812230310569
:1010700071F18D819E8183309105E9F150C0ABE320
:10108000B0E0EBE3F0E08081482F8B81282F30E047
:1010900081E090E0022E02C0880F991F0A94E2F7C7
:1010A000842B8C9344C0A8E3B0E0E8E3F0E08081B7
:1010B000482F8B81282F30E081E090E0022E02C083
:1010C000880F991F0A94E2F7842B8C9330C0A5E314
:1010D000B0E0E5E3F0E08081482F8B81282F30E0FD
:1010E00081E090E0022E02C0880F991F0A94E2F777
:1010F000842B8C931CC0A2E3B0E0E2E3F0E080819B
:10110000482F8B81282F30E081E090E0022E02C032
:10111000880F991F0A94E2F7842B8C9308C081E012
:10112000898305C081E0898302C081E08983898148
:1011300028960FB6F894DEBF0FBECDBFCF91DF91DA
:101140000895DF93CF93CDB7DEB727970FB6F89406
:10115000DEBF0FBECDBF8A836B835D834C83198254
:101160008B81883008F0A5C08A81282F30E03F832A
:101170002E834E815F8141305105C1F18E819F8167
:101180008230910534F42E813F812115310571F0B3
:101190008DC04E815F814230510509F447C08E8178
:1011A0009F818330910509F461C080C0E9E3F0E0DC
:1011B0008081482F50E08B81282F30E081E090E043
:1011C00002C0880F991F2A95E2F79A012823392334
:1011D0008B81882F90E0A90102C0559547958A958B
:1011E000E2F7CA01EC81FD81808365C0E6E3F0E0AF
:1011F0008081482F50E08B81282F30E081E090E003
:1012000002C0880F991F2A95E2F79A0128233923F3
:101210008B81882F90E0A90102C0559547958A954A
:10122000E2F7CA01EC81FD81808345C0E3E3F0E091
:101230008081482F50E08B81282F30E081E090E0C2
:1012400002C0880F991F2A95E2F79A0128233923B3
:101250008B81882F90E0A90102C0559547958A950A
:10126000E2F7CA01EC81FD81808325C0E0E3F0E074
:101270008081482F50E08B81282F30E081E090E082
:1012800002C0880F991F2A95E2F79A012823392373
:101290008B81882F90E0A90102C0559547958A95CA
:1012A000E2F7CA01EC81FD81808305C081E089837A
:1012B00002C081E08983898127960FB6F894DEBF4A
:1012C0000FBECDBFCF91DF910895DF93CF93CDB700
:1012D000DEB788E30E94750ECF91DF910895DF930A
:1012E000CF93CDB7DEB788E20E94750ECF91DF9124
:1012F0000895DF93CF93CDB7DEB78CE00E94750ED3
:10130000CF91DF910895DF93CF93CDB7DEB788E01B
:101310000E94750ECF91DF910895DF93CF93CDB7E3
:10132000DEB78EE00E94750ECF91DF910895DF93B6
:10133000CF93CDB7DEB78AE00E94750ECF91DF91D3
:101340000895DF93CF93CDB7DEB78FE00E94750E7F
:10135000CF91DF910895DF93CF93CDB7DEB780E1D2
:101360000E94750ECF91DF910895DF93CF93CDB793
:10137000DEB784E10E94750ECF91DF910895DF936F
:10138000CF93CDB7DEB788E10E94750ECF91DF9184
:101390000895DF93CF93CDB7DEB78CE10E94750E31
:1013A000CF91DF910895DF93CF93CDB7DEB780E87B
:1013B0000E94750ECF91DF910895DF93CF93CDB743
:1013C000DEB780EC0E94750ECF91DF910895DF9318
:1013D000CF93CDB7DEB781E00E94750ECF91DF913C
:1013E0000895DF93CF93CDB7DEB786E00E94750EE8
:1013F000CF91DF910895DF93CF9300D000D0CDB788
:10140000DEB769837A838B839C8389819A81AB81E0
:10141000BC8188309105A105B105A8F489819A8124
:10142000AB81BC810896A11DB11D880F991FAA1F11
:10143000BB1F880F991FAA1FBB1F880F991FAA1FC8
:10144000BB1F0E94750E0F900F900F900F90CF91C1
:10145000DF910895DF93CF9300D000D000D0CDB7B7
:10146000DEB79E838D8319821A821B821C8220C064
:1014700029813A818D819E81FC01E20FF31F8081D9
:101480000E94130F89819A81AB81BC810196A11DB5
:10149000B11D89839A83AB83BC8389819A81AB8197
:1014A000BC8180319105A105B10511F40E94DD09CF
:1014B00029813A818D819E81FC01E20FF31F808199
:1014C0008823B1F626960FB6F894DEBF0FBECDBFC7
:1014D000CF91DF910895EF92FF920F931F93DF93C7
:1014E000CF93CDB7DEB769970FB6F894DEBF0FBEC6
:1014F000CDBF688B798B8A8B9B8B2DB73EB7398F8D
:10150000288F8DB79EB79D8B8C8B88899989AA89E6
:10151000BB898A879B87AC87BD871986888999890B
:10152000AA89BB890097A105B10519F480E30E943F
:10153000130F88899989AA89BB89BB23BCF58DE2E1
:101540000E94130F8A859B85AC85BD85B095A095BB
:10155000909581959F4FAF4FBF4F8A879B87AC87F0
:10156000BD8788899989AA89BB89B095A0959095EE
:1015700081959F4FAF4FBF4F888B998BAA8BBB8BA9
:1015800015C08A859B85AC85BD852AE030E040E0AA
:1015900050E0BC01CD010E94AD19DA01C9018A8772
:1015A0009B87AC87BD8789858F5F89878A859B8567
:1015B000AC85BD850097A105B10519F78985882FF0
:1015C00090E02DB73EB7281B390B0FB6F8943EBFFD
:1015D0000FBE2DBF8DB79EB701969F8B8E8B8E89C8
:1015E0009F8900969F8B8E8B2E893F893F872E8700
:1015F0008985882F90E00197AA2797FDA095BA2F9B
:101600008D839E83AF83B88737C0ED80FE800F81C6
:10161000188588899989AA89BB892AE030E040E049
:1016200050E0BC01CD010E94AD19DC01CB01282F97
:10163000205D8E859F85FC01EE0DFF1D208388892E
:101640009989AA89BB892AE030E040E050E0BC01DA
:10165000CD010E94AD19DA01C901888B998BAA8B43
:10166000BB8B8D819E81AF81B8850197A109B1099E
:101670008D839E83AF83B8878D819E81AF81B8852E
:10168000BB231CF619821A821B821C8217C0898117
:101690009A81AB81BC812E853F85F901E80FF91F46
:1016A00080810E94130F89819A81AB81BC81019650
:1016B000A11DB11D89839A83AB83BC838985282FA3
:1016C00030E040E050E089819A81AB81BC81821793
:1016D0009307A407B507D8F28C899D890FB6F894B3
:1016E0009EBF0FBE8DBF288D398D0FB6F8943EBFBB
:1016F0000FBE2DBF69960FB6F894DEBF0FBECDBFEB
:10170000CF91DF911F910F91FF90EF900895DF939C
:10171000CF9300D000D00F92CDB7DEB78A836B8312
:1017200019828B818031E0F48A81282F30E03D835B
:101730002C838C819D81009731F02C813D8121305B
:10174000310531F00AC08B8180580E94750E0AC0A5
:101750008B8180540E94750E05C081E0898302C090
:1017600081E0898389810F900F900F900F900F90E7
:10177000CF91DF910895DF93CF93CDB7DEB72A974E
:101780000FB6F894DEBF0FBECDBF9E838D834F830F
:10179000588769877A878F819885A985BA85BC0122
:1017A000CD010E94FB0919821A821B821C8215C07E
:1017B00029813A818D819E81FC01E20FF31F808196
:1017C0000E94130F89819A81AB81BC810196A11D72
:1017D000B11D89839A83AB83BC8389819A81AB8154
:1017E000BC8188309105A105B10510F32A960FB68A
:1017F000F894DEBF0FBECDBFCF91DF9108950F9358
:101800001F93DF93CF93CDB7DEB7C654D0400FB64A
:10181000F894DEBF0FBECDBF82E06FEF0E949B0544
:1018200083E067E00E949B05FE01ED5BFF4F80E0D7
:1018300090E0A0E2B2E480839183A283B3838E011F
:10184000015C1F4FFE01ED5BFF4F60817181828162
:10185000938120E030E04AEF54E40E941702DC015B
:10186000CB01F80180839183A283B383FE01FF96AD
:10187000608171818281938120E030E040E85FE304
:101880000E94710388232CF481E090E09EAF8DAF1D
:1018900046C0FE01FF96608171818281938120E0C4
:1018A0003FEF4FE757E40E941103181664F5FE015D
:1018B000ED5BFF4F608171818281938120E030E098
:1018C00040E251E40E941702DC01CB01BC01CD01D2
:1018D0000E944100DC01CB019EAF8DAF0FC088ECB0
:1018E00090E09CAF8BAF8BAD9CAD0197F1F79CAFB7
:1018F0008BAF8DAD9EAD01979EAF8DAF8DAD9EAD83
:10190000009769F716C0FE01FF96608171818281A0
:1019100093810E944100DC01CB019EAF8DAF8DAD64
:101920009EAD9AAF89AF89AD9AAD0197F1F79AAFA5
:1019300089AF0E94650980E090E0A0E8BFE38DAB2D
:101940009EABAFABB8AF6DA97EA98FA998AD20E0D3
:1019500030E04AEF54E40E941702DC01CB0189AB6E
:101960009AABABABBCAB69A97AA98BA99CA920E0C7
:1019700030E040E85FE30E94710388232CF481E0AB
:1019800090E098AB8FA73FC069A97AA98BA99CA9C1
:1019900020E03FEF4FE757E40E94110318164CF583
:1019A0006DA97EA98FA998AD20E030E040E251E416
:1019B0000E941702DC01CB01BC01CD010E94410055
:1019C000DC01CB0198AB8FA70FC088EC90E09EA7FD
:1019D0008DA78DA59EA50197F1F79EA78DA78FA531
:1019E00098A9019798AB8FA78FA598A9009769F739
:1019F00014C069A97AA98BA99CA90E944100DC01A5
:101A0000CB0198AB8FA78FA598A99CA78BA78BA577
:101A10009CA50197F1F79CA78BA70E94790980E00C
:101A200090E0A0E8BFE38FA398A7A9A7BAA76FA1EA
:101A300078A589A59AA520E030E04AEF54E40E94F9
:101A40001702DC01CB018BA39CA3ADA3BEA36BA1AA
:101A50007CA18DA19EA120E030E040E85FE30E94E0
:101A6000710388232CF481E090E09AA389A33FC0FE
:101A70006BA17CA18DA19EA120E03FEF4FE757E431
:101A80000E94110318164CF56FA178A589A59AA597
:101A900020E030E040E251E40E941702DC01CB017B
:101AA000BC01CD010E944100DC01CB019AA389A3B6
:101AB0000FC088EC90E098A38F8F8F8D98A101972D
:101AC000F1F798A38F8F89A19AA101979AA389A36F
:101AD00089A19AA1009769F714C06BA17CA18DA17F
:101AE0009EA10E944100DC01CB019AA389A389A198
:101AF0009AA19E8F8D8F8D8D9E8D0197F1F79E8F70
:101B00008D8F0E94E70980E090E0A0E4B0E4898F27
:101B10009A8FAB8FBC8F698D7A8D8B8D9C8D20E0D9
:101B200030E04AEF54E40E941702DC01CB018D8BB8
:101B30009E8BAF8BB88F6D897E898F89988D20E0C1
:101B400030E040E85FE30E94710388232CF481E0D9
:101B500090E09C8B8B8B3FC06D897E898F89988D9F
:101B600020E03FEF4FE757E40E94110318164CF5B1
:101B7000698D7A8D8B8D9C8D20E030E040E251E4C0
:101B80000E941702DC01CB01BC01CD010E94410083
:101B9000DC01CB019C8B8B8B0FC088EC90E09A8B87
:101BA000898B89899A890197F1F79A8B898B8B891F
:101BB0009C8901979C8B8B8B8B899C89009769F7FB
:101BC00014C06D897E898F89988D0E944100DC0147
:101BD000CB019C8B8B8B8B899C89988B8F878F8576
:101BE00098890197F1F7988B8F870E94F10980E01F
:101BF00090E0A0E8BFE38B879C87AD87BE876B85AD
:101C00007C858D859E8520E030E04AEF54E40E947B
:101C10001702DC01CB018F839887A987BA876F8170
:101C2000788589859A8520E030E040E85FE30E946E
:101C3000710388232CF481E090E09E838D833FC064
:101C40006F81788589859A8520E03FEF4FE757E4DB
:101C50000E94110318164CF56B857C858D859E8539
:101C600020E030E040E251E40E941702DC01CB01A9
:101C7000BC01CD010E944100DC01CB019E838D831C
:101C80000FC088EC90E09C838B838B819C810197B3
:101C9000F1F79C838B838D819E8101979E838D8339
:101CA0008D819E81009769F714C06F817885898541
:101CB0009A850E944100DC01CB019E838D838D813A
:101CC0009E819A83898389819A810197F1F79A830A
:101CD0008983CA5BDF4F0FB6F894DEBF0FBECDBF5E
:101CE000CF91DF911F910F910895DF93CF93CDB7DF
:101CF000DEB72F970FB6F894DEBF0FBECDBF8F872C
:101D000083E062E040E00E948F0783E061E040E012
:101D10000E948F0783E060E041E00E948F0782E02D
:101D20006F850E94E30583E060E040E00E948F073A
:101D300080E090E0A0E0B0E48B879C87AD87BE8711
:101D40006B857C858D859E8520E030E04AEF54E4EC
:101D50000E941702DC01CB018F839887A987BA877D
:101D60006F81788589859A8520E030E040E85FE3DF
:101D70000E94710388232CF481E090E09E838D8380
:101D80003FC06F81788589859A8520E03FEF4FE7D6
:101D900057E40E94110318164CF56B857C858D85E0
:101DA0009E8520E030E040E251E40E941702DC0111
:101DB000CB01BC01CD010E944100DC01CB019E831F
:101DC0008D830FC088EC90E09C838B838B819C81FA
:101DD0000197F1F79C838B838D819E8101979E8370
:101DE0008D838D819E81009769F714C06F817885FE
:101DF00089859A850E944100DC01CB019E838D83F9
:101E00008D819E819A83898389819A810197F1F7D7
:101E10009A8389832F960FB6F894DEBF0FBECDBF8D
:101E2000CF91DF910895DF93CF93CDB7DEB72F9792
:101E30000FB6F894DEBF0FBECDBF8F8783E062E0A0
:101E400041E00E948F0783E061E040E00E948F073D
:101E500083E060E041E00E948F0782E06F850E948E
:101E6000E30583E060E040E00E948F0780E090E0BF
:101E7000A0E0B0E48B879C87AD87BE876B857C85AF
:101E80008D859E8520E030E04AEF54E40E941702E1
:101E9000DC01CB018F839887A987BA876F8178850A
:101EA00089859A8520E030E040E85FE30E94710375
:101EB00088232CF481E090E09E838D833FC06F8166
:101EC000788589859A8520E03FEF4FE757E40E94A7
:101ED000110318164CF56B857C858D859E8520E059
:101EE00030E040E251E40E941702DC01CB01BC016A
:101EF000CD010E944100DC01CB019E838D830FC088
:101F000088EC90E09C838B838B819C810197F1F717
:101F10009C838B838D819E8101979E838D838D8190
:101F20009E81009769F714C06F81788589859A85AD
:101F30000E944100DC01CB019E838D838D819E81B7
:101F40009A83898389819A810197F1F79A8389839A
:101F50002F960FB6F894DEBF0FBECDBFCF91DF91A5
:101F60000895DF93CF93CDB7DEB780E060E040E027
:101F70000E947D0680E061E040E00E947D0680E0F6
:101F800062E040E00E947D0680E063E040E00E9465
:101F90007D0680E064E041E00E947D0680E065E02F
:101FA00041E00E947D0680E066E041E00E947D06FF
:101FB00080E067E041E00E947D0680E060E041E073
:101FC0000E948F0780E061E041E00E948F0780E07F
:101FD00062E041E00E948F0780E063E041E00E9400
:101FE0008F0780E064E041E00E948F0780E065E0B9
:101FF00041E00E948F0780E066E041E00E948F0789
:1020000080E067E041E00E948F07CF91DF91089563
:10201000DF93CF93CDB7DEB7A0970FB6F894DEBFAE
:102020000FBECDBF8FEF8F8F84E08E8F27C180E0F2
:102030006E8D40E00E948F071D8E14C19E01205EB0
:102040003F4F80E06D8DA9010E94A10888A18823DF
:1020500009F005C18D8D482F50E08E8D882F90E0BE
:102060009C0124503040CA01880F991F880F991F86
:10207000820F931FFC01ED54FF4F80818F8F80E012
:1020800090E0A0EAB0E4898F9A8FAB8FBC8F698D06
:102090007A8D8B8D9C8D20E030E04AEF54E40E94D5
:1020A0001702DC01CB018D8B9E8BAF8BB88F6D89B6
:1020B0007E898F89988D20E030E040E85FE30E94C0
:1020C000710388232CF481E090E09C8B8B8B3FC0C4
:1020D0006D897E898F89988D20E03FEF4FE757E427
:1020E0000E94110318164CF5698D7A8D8B8D9C8D8D
:1020F00020E030E040E251E40E941702DC01CB0115
:10210000BC01CD010E944100DC01CB019C8B8B8B7B
:102110000FC088EC90E09A8B898B89899A89019706
:10212000F1F79A8B898B8B899C8901979C8B8B8B80
:102130008B899C89009769F71DC06D897E898F897D
:10214000988D0E944100DC01CB019C8B8B8B8B898D
:102150009C89988B8F878F8598890197F1F7988B49
:102160008F8708C09E01205E3F4F80E06D8DA901E2
:102170000E94A10888A18823A9F380E090E0A0EA4A
:10218000B0E48B879C87AD87BE876B857C858D850A
:102190009E8520E030E04AEF54E40E941702DC0103
:1021A000CB018F839887A987BA876F8178858985C6
:1021B0009A8520E030E040E85FE30E9471038823C5
:1021C0002CF481E090E09E838D833FC06F81788501
:1021D00089859A8520E03FEF4FE757E40E9411037D
:1021E00018164CF56B857C858D859E8520E030E04A
:1021F00040E251E40E941702DC01CB01BC01CD0199
:102200000E944100DC01CB019E838D830FC088ECCE
:1022100090E09C838B838B819C810197F1F79C8359
:102220008B838D819E8101979E838D838D819E817D
:10223000009769F714C06F81788589859A850E9417
:102240004100DC01CB019E838D838D819E819A8329
:10225000898389819A810197F1F79A8389838D8D8A
:102260008F5F8D8F8D8D843008F4E8CE80E06E8D89
:1022700041E00E948F078E8D8F5F8E8F8E8D88300C
:1022800008F4D5CE8F8DA0960FB6F894DEBF0FBEA2
:10229000CDBFCF91DF910895DF93CF93CDB7DEB758
:1022A0002C970FB6F894DEBF0FBECDBF6D837E8333
:1022B0008F83988729873A874B875C872D813E815A
:1022C0004F81588589859A85AB85BC85820F931F80
:1022D000A41FB51F89839A83AB83BC8389819A81AC
:1022E000AB81BC81BC01CD012C960FB6F894DEBF4A
:1022F0000FBECDBFCF91DF910895EF92FF920F9364
:102300001F93DF93CF93CDB7DEB72C970FB6F8941A
:10231000DEBF0FBECDBF6D837E838F8398872987F5
:102320003A874B875C872D813E814F81588589850F
:102330009A85AB85BC8579018A01E81AF90A0A0BEE
:102340001B0BD801C70189839A83AB83BC83898126
:102350009A81AB81BC81BC01CD012C960FB6F8945B
:10236000DEBF0FBECDBFCF91DF911F910F91FF90C8
:10237000EF900895DF93CF93CDB7DEB72C970FB6CC
:10238000F894DEBF0FBECDBF6D837E838F839887A9
:1023900029873A874B875C878D819E81AF81B8857D
:1023A00029853A854B855C85BC01CD010E948E193B
:1023B000DC01CB0189839A83AB83BC8389819A81B9
:1023C000AB81BC81BC01CD012C960FB6F894DEBF69
:1023D0000FBECDBFCF91DF910895DF93CF93CDB7DF
:1023E000DEB72C970FB6F894DEBF0FBECDBF6D835E
:1023F0007E838F83988729873A874B875C878D8177
:102400009E81AF81B88529853A854B855C85BC0165
:10241000CD010E94AD19DA01C90189839A83AB838A
:10242000BC8389819A81AB81BC81BC01CD012C9692
:102430000FB6F894DEBF0FBECDBFCF91DF910895E8
:102440000F931F93DF93CF93CDB7DEB7C357D04021
:102450000FB6F894DEBF0FBECDBF0E94FF0B0E94E7
:10246000B10F80E065E00E94870B80E690E00E945B
:102470002A0AFE01ED5BFF4F80E090E0A0EFB1E49F
:1024800080839183A283B3838E01015C1F4FFE0181
:10249000ED5BFF4F608171818281938120E030E0AC
:1024A0004AEF54E40E941702DC01CB01F80180835B
:1024B0009183A283B383FE01FF9660817181828143
:1024C000938120E030E040E85FE30E9471038823BD
:1024D0002CF481E090E09EAF8DAF46C0FE01FF96E8
:1024E000608171818281938120E03FEF4FE757E463
:1024F0000E941103181664F5FE01ED5BFF4F608129
:1025000071818281938120E030E040E251E40E94B9
:102510001702DC01CB01BC01CD010E944100DC01AE
:10252000CB019EAF8DAF0FC088EC90E09CAF8BAF1E
:102530008BAD9CAD0197F1F79CAF8BAF8DAD9EAD90
:1025400001979EAF8DAF8DAD9EAD009769F716C018
:10255000FE01FF9660817181828193810E9441001A
:10256000DC01CB019EAF8DAF8DAD9EAD9AAF89AF33
:1025700089AD9AAD0197F1F79AAF89AF80E065E038
:102580000E94870B87E690E00E942A0A80E090E094
:10259000A0EFB1E48DAB9EABAFABB8AF6DA97EA998
:1025A0008FA998AD20E030E04AEF54E40E94170272
:1025B000DC01CB0189AB9AABABABBCAB69A97AA907
:1025C0008BA99CA920E030E040E85FE30E94710302
:1025D00088232CF481E090E098AB8FA73FC069A9D5
:1025E0007AA98BA99CA920E03FEF4FE757E40E940E
:1025F000110318164CF56DA97EA98FA998AD20E09E
:1026000030E040E251E40E941702DC01CB01BC0142
:10261000CD010E944100DC01CB0198AB8FA70FC018
:1026200088EC90E09EA78DA78DA59EA50197F1F758
:102630009EA78DA78FA598A9019798AB8FA78FA567
:1026400098A9009769F714C069A97AA98BA99CA9D0
:102650000E944100DC01CB0198AB8FA78FA598A900
:102660009CA78BA78BA59CA50197F1F79CA78BA78F
:1026700080E065E00E94870B80E690E00E942A0AD5
:1026800080E090E0AAE7B4E48FA398A7A9A7BAA72F
:102690006FA178A589A59AA520E030E04AEF54E41F
:1026A0000E941702DC01CB018BA39CA3ADA3BEA3A8
:1026B0006BA17CA18DA19EA120E030E040E85FE30A
:1026C0000E94710388232CF481E090E09AA389A3EF
:1026D0003FC06BA17CA18DA19EA120E03FEF4FE701
:1026E00057E40E94110318164CF56FA178A589A52F
:1026F0009AA520E030E040E251E40E941702DC019C
:10270000CB01BC01CD010E944100DC01CB019AA3A9
:1027100089A30FC088EC90E098A38F8F8F8D98A12C
:102720000197F1F798A38F8F89A19AA101979AA396
:1027300089A389A19AA1009769F714C06BA17CA114
:102740008DA19EA10E944100DC01CB019AA389A327
:1027500089A19AA19E8F8D8F8D8D9E8D0197F1F706
:102760009E8F8D8F81E063E00E94870B8EE690E064
:102770000E942A0A80E090E0A0EFB1E4898F9A8F4E
:10278000AB8FBC8F698D7A8D8B8D9C8D20E030E076
:102790004AEF54E40E941702DC01CB018D8B9E8B23
:1027A000AF8BB88F6D897E898F89988D20E030E05E
:1027B00040E85FE30E94710388232CF481E090E0FD
:1027C0009C8B8B8B3FC06D897E898F89988D20E093
:1027D0003FEF4FE757E40E94110318164CF5698D3F
:1027E0007A8D8B8D9C8D20E030E040E251E40E9498
:1027F0001702DC01CB01BC01CD010E944100DC01CC
:10280000CB019C8B8B8B0FC088EC90E09A8B898BD3
:1028100089899A890197F1F79A8B898B8B899C8991
:1028200001979C8B8B8B8B899C89009769F714C0CF
:102830006D897E898F89988D0E944100DC01CB01D2
:102840009C8B8B8B8B899C89988B8F878F859889A4
:102850000197F1F7988B8F8781E063E00E94870BE7
:1028600089E790E00E942A0A80E090E0AAE7B4E4B9
:102870008B879C87AD87BE876B857C858D859E8584
:1028800020E030E04AEF54E40E941702DC01CB0163
:102890008F839887A987BA876F81788589859A857C
:1028A00020E030E040E85FE30E94710388232CF4CD
:1028B00081E090E09E838D833FC06F81788589851C
:1028C0009A8520E03FEF4FE757E40E941103181666
:1028D0004CF56B857C858D859E8520E030E040E25F
:1028E00051E40E941702DC01CB01BC01CD010E9422
:1028F0004100DC01CB019E838D830FC088EC90E00A
:102900009C838B838B819C810197F1F79C838B83C4
:102910008D819E8101979E838D838D819E810097FD
:1029200069F714C06F81788589859A850E94410076
:10293000DC01CB019E838D838D819E819A83898367
:1029400089819A810197F1F79A8389830E94E70927
:102950000E948D090E94A109FE01EE59FF4F1082CD
:10296000FE01EF59FF4F1082FE01E35AFF4F108224
:10297000118212821382FE01E75AFF4F10821182E8
:1029800012821382FE01EC5AFF4F1082FE01ED5AB3
:10299000FF4F1082FE01E25BFF4F81E090E0A0E07C
:1029A000B0E080839183A283B383FE01ED59FF4F92
:1029B0008FEF8083EDC00E940810FE01ED59FF4F9C
:1029C0008083FE01ED59FF4F80818F3F09F4E0C005
:1029D000FE01ED59FF4F80818A3080F5FE01ED59EF
:1029E000FF4F8081882F90E0A0E0B0E0BC01CD01D6
:1029F0000E946B0ADE01AF59BF4FFE01EF59FF4F36
:102A000080818F5F8C93FE01EC5AFF4F8081282FCD
:102A100030E0CE018C599F4FDC01A20FB31FFE01A5
:102A2000ED59FF4F80818C93DE01AC5ABF4FFE0100
:102A3000EC5AFF4F80818F5F8C93AAC0FE01ED5945
:102A4000FF4F8081282F30E0E4963FAF2EAFE49710
:102A5000E4968EAD9FADE4978F32910509F473C073
:102A6000E496EEADFFADE497E033F105BCF4E496F7
:102A70002EAD3FADE4972B32310501F1E4968EADDA
:102A80009FADE4978D32910569F1E496EEADFFAD0F
:102A9000E497EA32F10509F441C075C0E4962EAD21
:102AA0003FADE4972D33310591F1E4968EAD9FADA6
:102AB000E4978336910509F45BC065C0FE01ED59CA
:102AC000FF4F80810E94130FDE01AF59BF4FFE01FF
:102AD000EF59FF4F80818F5F8C93FE01EE5AFF4FBD
:102AE000108256C0FE01ED59FF4F80810E94130FE6
:102AF000DE01AF59BF4FFE01EF59FF4F80818F5F5D
:102B00008C93FE01EE5AFF4F81E0808341C0FE01AD
:102B1000ED59FF4F80810E94130F3AC0FE01ED591D
:102B2000FF4F80810E94130FDE01AF59BF4FFE019E
:102B3000EF59FF4F80818F5F8C93FE01EE5AFF4F5C
:102B400082E0808325C0FE01ED59FF4F80810E9405
:102B5000130FDE01AF59BF4FFE01EF59FF4F8081C8
:102B60008F5F8C93FE01EE5AFF4F83E0808310C08D
:102B7000FE01EC5AFF4F1082FE01EF59FF4F108209
:102B80000E94E70905C0FE01ED59FF4F8FEF8083DA
:102B9000FE01ED59FF4F80818B32C9F0FE01ED59E6
:102BA000FF4F80818D3299F0FE01ED59FF4F8081FA
:102BB0008A3269F0FE01ED59FF4F80818F3239F082
:102BC000FE01ED59FF4F80818D3309F0F4CEFE01F7
:102BD000E35BFF4F10825DC0FE01EC5AFF4F808126
:102BE000882F90E09C0121503040FE01E35BFF4FB5
:102BF0008081882F90E0281B390BCE018C599F4F84
:102C0000FC01E20FF31F8081882F90E0A0E0B0E08C
:102C1000FE01E25BFF4F2081318142815381BC0183
:102C2000CD010E948E199B01AC01FE01E35AFF4FBA
:102C300080819181A281B381820F931FA41FB51F50
:102C4000FE01E35AFF4F80839183A283B3838E01F9
:102C5000025B1F4FFE01E25BFF4F80819181A281E9
:102C6000B3812AE030E040E050E0BC01CD010E9499
:102C70008E19DC01CB01F80180839183A283B38399
:102C8000DE01A35BBF4FFE01E35BFF4F80818F5FDF
:102C90008C93FE01E35BFF4FDE01AC5ABF4F908186
:102CA0008C91981708F498CFFE01E25BFF4F81E00A
:102CB00090E0A0E0B0E080839183A283B383FE0123
:102CC000EC5AFF4F1082FE01ED59FF4F80818D338A
:102CD00009F0FDC0FE01E35AFF4F80819181A2817E
:102CE000B381BC01CD010E946B0AFE01ED59FF4F7B
:102CF0008FEF8083FE01E35AFF4F10821182128210
:102D00001382E5C00E940810FE01ED59FF4F808339
:102D1000FE01ED59FF4F80818F3F09F4D8C0FE01BD
:102D2000ED59FF4F80818A3080F5FE01ED59FF4F4C
:102D30008081882F90E0A0E0B0E0BC01CD010E942E
:102D40006B0ADE01AF59BF4FFE01EF59FF4F808183
:102D50008F5F8C93FE01ED5AFF4F8081282F30E06A
:102D6000CE018C599F4FDC01A20FB31FFE01ED591C
:102D7000FF4F80818C93DE01AD5ABF4FFE01ED5AAB
:102D8000FF4F80818F5F8C93A2C0FE01ED59FF4FF2
:102D900080818D3381F4FE01ED59FF4F80810E94C7
:102DA000130FDE01AF59BF4FFE01EF59FF4F808176
:102DB0008F5F8C938CC0FE01ED59FF4F808183366D
:102DC000B1F4FE01EC5AFF4F1082FE01ED5AFF4FA5
:102DD0001082FE01E35AFF4F108211821282138289
:102DE000FE01EF59FF4F10820E94E70977C0FE01F4
:102DF000ED59FF4F8081282F30E0E2963FAF2EAF94
:102E0000E297E2968EAD9FADE2978B329105F1F09D
:102E1000E296EEADFFADE297EC32F10544F4E296B6
:102E20002EAD3FADE2972A32310571F14BC0E296EB
:102E30008EAD9FADE2978D329105B9F0E296EEAD81
:102E4000FFADE297EF32F10571F13CC0FE01ED59A3
:102E5000FF4F80810E94130FDE01AE59BF4FFE016C
:102E6000ED59FF4F80818C9332C0FE01ED59FF4F29
:102E700080810E94130FDE01AE59BF4FFE01ED5954
:102E8000FF4F80818C9323C0FE01ED59FF4F80815D
:102E90000E94130FDE01AE59BF4FFE01ED59FF4FE7
:102EA00080818C9314C0FE01ED59FF4F80810E94F8
:102EB000130FDE01AE59BF4FFE01ED59FF4F808168
:102EC0008C9305C0FE01ED59FF4F8FEF8083FE010B
:102ED000ED59FF4F80818D3309F014CFFE01EE597B
:102EE000FF4F80818B3291F0FE01EE59FF4F8081C0
:102EF0008D3261F0FE01EE59FF4F80818A3231F050
:102F0000FE01EE59FF4F80818F3251F5FE01ED59E0
:102F1000FF4F80818D3321F581E060E00E94870BB7
:102F200084E890E00E942A0AFE01EE59FF4F1082C9
:102F3000FE01E35AFF4F1082118212821382FE01BA
:102F4000E75AFF4F1082118212821382FE01EF595D
:102F5000FF4F1082FE01ED59FF4F8FEF808318CE97
:102F6000FE01ED59FF4F80818D3309F0D1C1FE0183
:102F7000E45BFF4F10825DC0FE01ED5AFF4F808180
:102F8000882F90E09C0121503040FE01E45BFF4F10
:102F90008081882F90E0281B390BCE018C599F4FE0
:102FA000FC01E20FF31F8081882F90E0A0E0B0E0E9
:102FB000FE01E25BFF4F2081318142815381BC01E0
:102FC000CD010E948E199B01AC01FE01E75AFF4F13
:102FD00080819181A281B381820F931FA41FB51FAD
:102FE000FE01E75AFF4F80839183A283B3838E0152
:102FF000025B1F4FFE01E25BFF4F80819181A28146
:10300000B3812AE030E040E050E0BC01CD010E94F5
:103010008E19DC01CB01F80180839183A283B383F5
:10302000DE01A45BBF4FFE01E45BFF4F80818F5F39
:103030008C93FE01E45BFF4FDE01AD5ABF4F9081E0
:103040008C91981708F498CFFE01E25BFF4F81E066
:1030500090E0A0E0B0E080839183A283B383FE017F
:10306000ED5AFF4F1082FE01EE5AFF4F8081282F4C
:1030700030E0E0963FAF2EAFE097E0968EAD9FAD8B
:10308000E0978130910561F1E096EEADFFADE097FC
:10309000E230F10509F440C0E0962EAD3FADE09777
:1030A0002115310509F054C0FE01E35AFF4F80811C
:1030B0009181A281B381FE01E75AFF4F20813181C6
:1030C00042815381BC01CD010E944C11DC01CB0136
:1030D000FE01EB5AFF4F80839183A283B38353C0D9
:1030E000FE01E35AFF4F80819181A281B381FE01ED
:1030F000E75AFF4F2081318142815381BC01CD01CC
:103100000E947D11DC01CB01FE01EB5AFF4F808351
:103110009183A283B38337C0FE01E35AFF4F8081BE
:103120009181A281B381FE01E75AFF4F2081318155
:1031300042815381BC01CD010E94BA11DC01CB0157
:10314000FE01EB5AFF4F80839183A283B3831BC0A0
:10315000FE01E35AFF4F80819181A281B381FE017C
:10316000E75AFF4F2081318142815381BC01CD015B
:103170000E94ED11DC01CB01FE01EB5AFF4F808371
:103180009183A283B383FE01EE5AFF4F8081833087
:10319000C1F4FE01EB5AFF4F80819181A281B3817E
:1031A0008F3F3FEF93073FEFA3073FEFB30749F48C
:1031B00081E060E00E94870B82E990E00E942A0A89
:1031C0008FC0FE01E55BFF4F10829E01295B3F4FE0
:1031D000FE01EB5AFF4F80819181A281B381F901F9
:1031E00080839183A283B383FE01E95BFF4F8081DB
:1031F0009181A281B381BB230CF042C09E01295B67
:103200003F4FFE01E95BFF4F80819181A281B38135
:10321000B095A095909581959F4FAF4FBF4FF90105
:1032200080839183A283B383DE01A55BBF4FFE0140
:10323000E55BFF4F80818F5F8C9322C08E01095B1D
:103240001F4FFE01E95BFF4F80819181A281B38115
:103250002AE030E040E050E0BC01CD010E94AD1911
:10326000DA01C901F80180839183A283B383DE016F
:10327000A55BBF4FFE01E55BFF4F80818F5F8C93A5
:10328000FE01E95BFF4F80819181A281B3810097AC
:10329000A105B10599F6FE01EF59FF4F8081282F56
:1032A00030E0FE01E55BFF4F8081882F90E0820FC8
:1032B000931F8131910564F4FE01EB5AFF4F808129
:1032C0009181A281B381BC01CD010E946B0A08C02B
:1032D00081E060E00E94870B8EE990E00E942A0A5C
:1032E000FE01ED59FF4F8FEF8083FE01E35AFF4F40
:1032F0001082118212821382FE01E75AFF4F108260
:10330000118212821382FE01EF59FF4F108240CCCE
:10331000FE01ED59FF4F8FEF80833ACC629FD001C1
:10332000739FF001829FE00DF11D649FE00DF11D80
:10333000929FF00D839FF00D749FF00D659FF00D2F
:103340009927729FB00DE11DF91F639FB00DE11D1C
:10335000F91FBD01CF011124089597FB092E052601
:103360000ED057FD04D014D00AD0001C38F450956C
:103370004095309521953F4F4F4F5F4F0895F6F799
:1033800090958095709561957F4F8F4F9F4F0895D1
:10339000A1E21A2EAA1BBB1BFD010DC0AA1FBB1F59
:1033A000EE1FFF1FA217B307E407F50720F0A21BCB
:1033B000B30BE40BF50B661F771F881F991F1A9438
:1033C00069F760957095809590959B01AC01BD0162
:1033D000CF0108952F923F924F925F926F927F920A
:1033E0008F929F92AF92BF92CF92DF92EF92FF9215
:1033F0000F931F93CF93DF93CDB7DEB7CA1BDB0BC1
:103400000FB6F894DEBF0FBECDBF09942A88398865
:1034100048885F846E847D848C849B84AA84B9846C
:10342000C884DF80EE80FD800C811B81AA81B98178
:10343000CE0FD11D0FB6F894DEBF0FBECDBFED018C
:063440000895F894FFCF8F
:103446004D41524B27530053274B41524D00726F4B
:1034560074616C75636C61430043616C63756C6188
:10346600746F720053796E746178204572726F7250
:1034760021004D617468204572726F7221004F758C
:1034860074206F66207370616365000000000000A1
:103496000000000102032B0405062D0708092A6314
:0434A600003D2F00B6
:00000001FF
